:100000000C94F1000C940E010C940E010C948101DF
:100010000C940E010C940E010C940E010C940E0124
:100020000C940E010C940E010C9476050C94B00502
:100030000C940E010C940E010C940E010C940E0104
:100040000C940E010C940E010C940E010C940E01F4
:100050000C940E010C940E010C940E010C940E01E4
:100060000C940E010C940E010C940E010C940E01D4
:100070000C940E010C940E010C940E010C940E01C4
:100080000C940E010C940E010C940E010C940E01B4
:100090000C940E010C940E010C940E010C940E01A4
:1000A0000C940E010C940E010C940E01170514050E
:1000B00011050E050B05080505050205FF04FC04E6
:1000C000F904F604F304F004ED04EA04E704E4049C
:1000D000E104DE04DB04D804D504D204CF04CC044C
:1000E000C904C604C304C004BD04BA04B704B404FC
:1000F000B104AE04AB04A804A504A2049F049C04AC
:1001000099049604930490048D048A04870484045B
:1001100081047E047B047804750472046F046C040B
:1001200069046604630460045D045A045704000112
:10013000000062011200020000740143000300008D
:10014000B7010401030904BB011202030904CF0132
:100150000603030904D701080001C112018036011A
:1001600081361201000202000010C0167A0400015C
:100170000102030109024300020100C03209040028
:100180000001020201000524001001052401010103
:10019000042402060524060001070582031000401E
:1001A00009040100020A00000007050302400000E4
:1001B000070584024000000403090412034A002ECC
:1001C0000020004600690065006E00650000000622
:1001D000034D0032000000080334003100300000FD
:1001E000000011241FBECFEFDAE0DEBFCDBF11E06B
:1001F000A0E0B1E0EAE2F5E102C005900D92A8307E
:10020000B107D9F711E0A8E0B1E001C01D92AB3110
:10021000B107E1F70E9410010C94930A0C940000BE
:100220000F931F93DF93CF93CDB7DEB762970FB6CF
:10023000F894DEBF0FBECDBF80E8809361001092BE
:100240006100FE01319682E1DF011D928A95E9F796
:100250006A9A72980E94B0010E944E030E9467033E
:100260008823E1F36A9A729A80E060E00E9428088D
:100270006E9A76986E9A769A81E060E24EE00E94DD
:1002800054028E010F5F1F4F8FE39CE90197F1F736
:1002900000C00000C8010E94910889819A810E94D3
:1002A000500789E00E94A7038B819C810E94500720
:1002B00089E00E94A7038D819E810E94500789E0FA
:1002C0000E94A7038F8198850E94500789E00E94B1
:1002D000A70389859A850E94500789E00E94A70399
:1002E0008B859C850E9450078AE00E94A7038DE0C1
:1002F0000E94A703C9CF81E060E24EE00E94540251
:1003000008951F920F920FB60F9211242F933F93CF
:100310004F935F936F937F938F939F93AF93BF930D
:10032000EF93FF936A9A8EB194E089278EB988E0A3
:1003300091E06EE00E94AC0281E080931601FF9193
:10034000EF91BF91AF919F918F917F916F915F914D
:100350004F913F912F910F900FBE0F901F901895C6
:10036000589A599A5A9A8CE08093B800E9E6F0E0DE
:1003700080818062808380818F7E8083EA9A7894F6
:10038000089584E88093BC008091BC0087FFFCCF77
:100390008091BB00089584E98093BC00089520E01B
:1003A00030E08091BC0087FD06C02F5F3F4F83E0A7
:1003B000293E3807B1F781E093E0283E390709F478
:1003C00080E008958093BB0084E88093BC000E9485
:1003D000CF01882321F08091B900887F089580E0C3
:1003E00008951F93DF93CF930F92CDB7DEB7182FE9
:1003F00084EA8093BC0069830E94CF0169818823CD
:1004000071F0812F880F662331F08F5F0E94E20127
:10041000883451F404C00E94E201803229F484E956
:100420008093BC0080E001C081E00F90CF91DF910C
:100430001F910895CF93DF93C62FD42F60E00E94C1
:10044000F101882379F08C2F0E94E201882351F07A
:100450008D2F0E94E201882329F084E98093BC005B
:1004600081E001C080E0DF91CF910895CF93DF93C9
:10047000C82FD62F60E00E94F101882389F08D2FCC
:100480000E94E201882361F084E98093BC008C2FF4
:1004900061E00E94F101882319F00E94C10101C0AE
:1004A00080E0DF91CF910895DF93CF9300D00F923A
:1004B000CDB7DEB74B836A8389830E94B00194EA8B
:1004C0009093BC0089816A814B819091BC0097FF19
:1004D000FCCF90E59093BB0094E89093BC00909182
:1004E000BC0097FFFCCF9091B900987F903229F41F
:1004F00084E98093BC0080E029C091E09093BB0028
:1005000094E89093BC009091BC0097FFFCCF80933F
:10051000BB0084E88093BC008091BC0087FFFCCFC7
:100520006093BB0084E88093BC008091BC0087FF8F
:10053000FCCF4093BB0084E88093BC008091BC005A
:1005400087FFFCCF84E98093BC0081E00F900F907F
:100550000F90CF91DF91089524EA2093BC00209161
:10056000BC0027FFFCCF21E52093BB0024E82093AB
:10057000BC002091BC0027FFFCCF2091B900287F50
:100580002834A9F024EC2093BC002091BC0027FF64
:10059000FCCF2091BB00261751F4FC0120E030E095
:1005A000772767FD70956150704044EC10C084E976
:1005B0008093BC0080E008954093BC005091BC0043
:1005C00057FFFCCF5091BB0051932F5F3F4F261731
:1005D000370794F344E84093BC004091BC0047FFC8
:1005E000FCCF4091BB00820F931FFC01408384E944
:1005F0008093BC0081E00895F89494EA9093BC0045
:100600009091BC0097FFFCCF90E59093BB0094E8DD
:100610009093BC009091BC0097FFFCCF9091B900E3
:10062000987F903231F484E98093BC00789480E024
:10063000089593E09093BB0094E89093BC00909150
:10064000BC0097FFFCCF8093BB0084E88093BC0084
:100650008091BC0087FFFCCF862F972FFC0180E0A4
:1006600090E0552747FD509524E80AC0319130931A
:10067000BB002093BC003091BC0037FFFCCF01963B
:10068000841795079CF384E98093BC00789481E0FB
:1006900008958091E80080FFFCCF089581E0809369
:1006A000D70080EA8093D80082E189BD09B400FEBA
:1006B000FDCF80E98093D8001092E00010921701DE
:1006C000109218018CE08093E20078940895809154
:1006D000170108959FB7F89480911701882339F086
:1006E00083E08093E9008091E80085FD03C09FBF0F
:1006F0008FEF08958091F1002091E80025FD03C05F
:100700002BE62093E8009FBF08959FB7F89480914F
:100710001701882331F083E08093E9008091F20093
:1007200001C080E09FBF089580911701882371F078
:100730008FB7F89493E09093E9009BE602C0909302
:10074000E8002091E80025FDFACF8FBF0895909131
:1007500017019923D1F19FB7F89424E02093E90081
:1007600020911A01222341F02091E80025FD02C0CA
:100770009FBF2BC010921A012091E400275E34E045
:100780004091E80045FD12C09FBF9091E400921790
:1007900021F481E080931A0118C0909117019923E8
:1007A000B1F09FB7F8943093E900EACF8093F1005D
:1007B0008091E80085FD03C08AE38093E80085E02E
:1007C000809319019FBF80E008958FEF08958FEF08
:1007D0000895909117019923D9F09FB7F89424E0D8
:1007E0002093E9002091E80025FD03C09FBF8FEF13
:1007F00008958093F1008091E80085FD03C08AE3AD
:100800008093E80085E0809319019FBF80E0089500
:100810008FEF0895CF93DC0180911701882309F4AD
:100820001AC12FB7F89484E08093E90080911A01EF
:10083000882309F405C18091E80085FD02C02FBF1F
:100840000AC110921A01FCC08091E400875E909169
:10085000E80095FD13C02FBF9091E400981721F494
:1008600081E080931A01F7C090911701992309F450
:10087000F2C02FB7F894C093E900E9CF8091F2005D
:10088000E52FE81B8E2F90E06817790708F4E62F14
:100890006E1B7109F0E0E134F10508F0C5C0EA5AB9
:1008A000FF4FEE0FFF1F0590F491E02D09948D91FD
:1008B0008093F1008D918093F1008D918093F100F0
:1008C0008D918093F1008D918093F1008D918093B3
:1008D000F1008D918093F1008D918093F1008D91C5
:1008E0008093F1008D918093F1008D918093F100C0
:1008F0008D918093F1008D918093F1008D91809383
:10090000F1008D918093F1008D918093F1008D9194
:100910008093F1008D918093F1008D918093F1008F
:100920008D918093F1008D918093F1008D91809352
:10093000F1008D918093F1008D918093F1008D9164
:100940008093F1008D918093F1008D918093F1005F
:100950008D918093F1008D918093F1008D91809322
:10096000F1008D918093F1008D918093F1008D9134
:100970008093F1008D918093F1008D918093F1002F
:100980008D918093F1008D918093F1008D918093F2
:10099000F1008D918093F1008D918093F1008D9104
:1009A0008093F1008D918093F1008D918093F100FF
:1009B0008D918093F1008D918093F1008D918093C2
:1009C000F1008D918093F1008D918093F1008D91D4
:1009D0008093F1008D918093F1008D918093F100CF
:1009E0008D918093F1008D918093F1008D91809392
:1009F000F1008D918093F1008D918093F1008D91A4
:100A00008093F1008D918093F1008D918093F1009E
:100A10008D918093F1008D918093F1008D91809361
:100A2000F1008D918093F1008D918093F100809180
:100A3000E80085FD02C04093E8003093190104C02E
:100A4000C4E050E44AE335E06115710509F0FCCEDD
:100A50002FBF80E001C08FEFCF9108958FB7F8943A
:100A600090911901992341F094E09093E9009AE361
:100A70009093E800109219018FBF089580910401AE
:100A8000089580910501089580910601089580914F
:100A9000180108959FB7F89420911701222339F087
:100AA00022E02093E9003091E80035FD03C09FBFAC
:100AB0008FEF089531EA3093F10030E23093F10086
:100AC0001092F1001092F1001092F1001092F100DA
:100AD0002093F1001092F1008093F1001092F10048
:100AE0008AE38093E8009FBF80E008951F920F92F1
:100AF0000FB60F9211248F939F938091E100109273
:100B0000E10083FF11C01092E90091E09093EB00A7
:100B10001092EC0092E19093ED0098E09093F00039
:100B2000109217011092180182FF13C080911701D3
:100B3000882379F080911901882359F0815080939E
:100B40001901882331F484E08093E9008AE38093DB
:100B5000E8009F918F910F900FBE0F901F901895F6
:100B60001F920F920FB60F921124EF92FF920F93E4
:100B70001F932F933F934F935F936F937F938F9325
:100B80009F93AF93BF93EF93FF93DF93CF930F9216
:100B9000CDB7DEB71092E9008091E80083FF2DC148
:100BA0002091F1003091F100E090F100FF2440919C
:100BB000F100942F80E0E82AF92A0091F10010E07A
:100BC0004091F100942F80E0082B192B6091F100E7
:100BD000A091F10082EF8093E800363009F059C00F
:100BE00085E391E09C0125503040FC013797459109
:100BF00054914E155F05F9F4F90145915491401750
:100C00005107C9F42E5F3F4FF901859194912E5FF2
:100C10003F4FF9012491462F50E07A2F60E0462B98
:100C2000572B4F3F510519F010F04FEF50E042178E
:100C300050F4242F08C00796295F3F4FF1E08F350D
:100C40009F0799F6DAC0AEEF4091E80050E0BA0194
:100C50006570707061157105B9F342FDD1C0322F16
:100C6000213108F030E1AC01632F07C0FA014F5F7A
:100C70005F4FE491E093F10061506623B9F7830F71
:100C8000911D231BA093E8002223F1F63031E1F2FD
:100C9000B7C0353051F48EEF8093E8000E944903CD
:100CA0008E2D80688093E300ABC0393051F522234C
:100CB00009F0A3C0E09217011092180110921901D7
:100CC0008EEF8093E80041E088E591E04093E900F1
:100CD000FC010196E491E093EB00EE2369F09C01A6
:100CE0002F5F3F4FFC0184918093EC00C901019676
:100CF000F90124912093ED004F5F453039F78EE1E3
:100D000077C0383051F4203809F077C00E94490389
:100D1000809117018093F10048C0313279F4213A73
:100D200009F06BC00E944903E0E0F1E081918093FB
:100D3000F10041E0E730F407C9F737C03032A1F4E1
:100D4000213209F05AC08091E80082FFFCCFE0E038
:100D5000F1E08091F100819381E0E730F807C9F775
:100D60008BEF8093E80021C0323241F4213209F048
:100D700044C0E09218010E94490317C03323C9F40C
:100D800029830E9449032981223851F40093E90004
:100D90009091EB0081E095FF80E01092E90001C0A6
:100DA00080E08093F1001092F1008EEF8093E800D4
:100DB00027C0313011F0333001F52230F1F4E11465
:100DC000F104D9F40F77802F81508430B0F48EEF86
:100DD0008093E8000093E900333079F089E1809353
:100DE000EB0081E090E002C0880F991F0A95E2F7BE
:100DF0008093EA001092EA0003C081E28093EB0046
:100E00000F90CF91DF91FF91EF91BF91AF919F91A3
:100E10008F917F916F915F914F913F912F911F9192
:100E20000F91FF90EF900F900FBE0F901F901895AD
:100E30001F93CF93DF93EC01FE01219614911123B0
:100E400049F01A3019F48DE00E94A703812F0E9407
:100E5000A703F2CFDF91CF911F9108958A3010F44C
:100E600090E301C097E3890F0E94A7030895CF93F1
:100E7000C82F82958F700E942E078C2F8F700E9432
:100E80002E07CF910895CF93C82F892F0E9437073F
:100E90008C2F0E943707CF9108950E94370708953D
:100EA000EF92FF920F931F93DF93CF93CDB7DEB7EF
:100EB00027970FB6F894DEBF0FBECDBF8E010F5F30
:100EC0001F4F27E0F80111922A95E9F7B8014AE08F
:100ED00050E00E94BD0988E0E82EF12CEC0EFD1ECA
:100EE000F80181918F01882311F00E94A7030E154C
:100EF0001F05B1F727960FB6F894DEBF0FBECDBF22
:100F0000CF91DF911F910F91FF90EF900895EF9295
:100F1000FF920F931F93DF93CF9300D000D00F92D7
:100F2000CDB7DEB78E010F5F1F4F25E0F80111929C
:100F30002A95E9F7B8014AE050E00E94370A96E0A6
:100F4000E92EF12CEC0EFD1EF80181918F01882312
:100F500011F00E94A7030E151F05B1F70F900F9017
:100F60000F900F900F90CF91DF911F910F91FF90F5
:100F7000EF900895EF92FF920F931F93DF93CF931B
:100F8000CDB7DEB72B970FB6F894DEBF0FBECDBF3F
:100F90008E010F5F1F4F2BE0F80111922A95E9F7A0
:100FA000A8012AE030E00E94DE092CE0E22EF12CBC
:100FB000EC0EFD1EF80181918F01882311F00E9433
:100FC000A7030E151F05B1F72B960FB6F894DEBFD9
:100FD0000FBECDBFCF91DF911F910F91FF90EF908A
:100FE0000895EF92FF920F931F93DF93CF93CDB7A6
:100FF000DEB72A970FB6F894DEBF0FBECDBF8E01C5
:101000000F5F1F4F2AE0F80111922A95E9F7A80116
:101010002AE030E00E94120A3BE0E32EF12CEC0EB5
:10102000FD1EF80181918F01882311F00E94A70312
:101030000E151F05B1F72A960FB6F894DEBF0FBE46
:10104000CDBFCF91DF911F910F91FF90EF90089549
:10105000CF93DF93D82FC62F843008F05EC0643062
:1010600008F05BC00E94B0018FEF95EAAEE08150BE
:101070009040A040E1F700C0000089E665E70E94CB
:101080003602883609F049C089E66BE641E00E94E5
:101090001A024D2F440F440F440F89E66CE10E9461
:1010A0001A024C2F440F440F440F89E66BE10E9453
:1010B0001A0289E667E342E00E941A028EE162E0CA
:1010C00040E00E941A0289E667E340E00E941A02AB
:1010D00089E664E34EE10E941A0289E667E641E090
:1010E0000E941A0289E664E24DE10E941A0289E632
:1010F00065E24EE90E941A0289E666E243E00E9438
:101100001A0289E667E246E90E941A0289E66AE65F
:1011100040E20E941A0281E001C080E0DF91CF919D
:101120000895EF92FF920F931F93DF93CF93CDB764
:10113000DEB765970FB6F894DEBF0FBECDBF8C014A
:101140007E010894E11CF11C9EE489E6692F9D8BC9
:101150000E943602D7018D937D019D8991509A336B
:10116000A1F7FE01319686859785D80115969C9347
:101170008E931497868197811B969C938E931A97D2
:1011800089819A8151969C938E93509780899189F9
:1011900013969C938E9312978085918519969C93B4
:1011A0008E931897828193811F969C938E931E979E
:1011B0008289938911969C938E9382859385179645
:1011C0009C938E931697848195811D969C938E9304
:1011D0001C9781E065960FB6F894DEBF0FBECDBFB9
:1011E000CF91DF911F910F91FF90EF900895EF92B3
:1011F000FF920F931F93DF93CF93CDB7DEB727975F
:101200000FB6F894DEBF0FBECDBF8C017E010894EF
:10121000E11CF11C90E489E6692F9F830E9436024D
:10122000D7018D937D019F8191509A33A1F7FE01E3
:10123000319689819A81D80115969C938E93149743
:101240008281938113969C938E93129784819581CA
:1012500011969C938E9381E027960FB6F894DEBF8B
:101260000FBECDBFCF91DF911F910F91FF90EF90F7
:101270000895EF92FF920F931F93DF93CF93CDB713
:10128000DEB727970FB6F894DEBF0FBECDBF8C0137
:101290007E010894E11CF11C98E489E6692F9F8384
:1012A0000E943602D7018D937D019F819150923427
:1012B000A1F7FE01319689819A81D80115969C93F8
:1012C0008E9314978281938113969C938E93129799
:1012D0008481958111969C938E9381E027960FB619
:1012E000F894DEBF0FBECDBFCF91DF911F910F915C
:1012F000FF90EF900895EF92FF920F931F93DF936B
:10130000CF93CDB7DEB727970FB6F894DEBF0FBEE9
:10131000CDBF8C017E010894E11CF11C9EE489E69E
:10132000692F9F830E943602D7018D937D019F8193
:1013300091509834A1F7FE01319689819A81D801A4
:1013400015969C938E9314978281938113969C9308
:101350008E9312978481958111969C938E9381E050
:1013600027960FB6F894DEBF0FBECDBFCF91DF91A9
:101370001F910F91FF90EF900895FB019F01E8945A
:101380004230C4F04532B4F44A3029F497FB1EF4DD
:10139000909581959F4F642F77270E945D0A805D0D
:1013A0008A330CF0895D8193CB010097A1F716F485
:1013B0005DE251931082C9010C944D0AFA01CF935A
:1013C000FF93EF93223044F1253234F5C22FE89495
:1013D000CA3049F497FB3EF49095809570956195DD
:1013E0007F4F8F4F9F4F2C2F332744275527FF9335
:1013F000EF930E94710AEF91FF91605D6A330CF0E8
:10140000695D6193B901CA016050704080409040AD
:1014100051F716F4CDE2C19310828F919F91CF9135
:101420000C944D0AFA01CF93FF93EF932230CCF046
:101430002532BCF4C22F2C2F332744275527FF9386
:10144000EF930E94710AEF91FF91605D6A330CF097
:10145000695D6193B901CA0160507040804090405D
:1014600051F710828F919F91CF910C944D0AFB01FF
:101470009F01423074F0453264F4642F77270E9454
:101480005D0A805D8A330CF0895D8193CB01009702
:10149000A1F71082C9010C944D0ADC01FC01672FF1
:1014A00071917723E1F7329704C07C916D9370833B
:1014B0006291AE17BF07C8F30895AA1BBB1B51E189
:1014C00007C0AA1FBB1FA617B70710F0A61BB70BB4
:1014D000881F991F5A95A9F780959095BC01CD0159
:1014E0000895A1E21A2EAA1BBB1BFD010DC0AA1F65
:1014F000BB1FEE1FFF1FA217B307E407F50720F07D
:10150000A21BB30BE40BF50B661F771F881F991FF7
:101510001A9469F760957095809590959B01AC0140
:0A152000BD01CF010895F894FFCF3C
:08152A0000E1000000000800D0
:00000001FF
