:100000000C94F1000C940E010C940E010C94A908B0
:100010000C940E010C940E010C940E010C940E0124
:100020000C940E010C940E010C9449050C94870558
:100030000C940E010C940E010C940E010C940E0104
:100040000C940E010C940E010C940E010C940E01F4
:100050000C940E010C940E010C940E010C940E01E4
:100060000C940E010C940E010C940E010C940E01D4
:100070000C940E010C940E010C940E010C940E01C4
:100080000C940E010C940E010C940E010C940E01B4
:100090000C940E010C940E010C940E010C940E01A4
:1000A0000C940E010C940E010C940E01E704E40470
:1000B000E104DE04DB04D804D504D204CF04CC046C
:1000C000C904C604C304C004BD04BA04B704B4041C
:1000D000B104AE04AB04A804A504A2049F049C04CC
:1000E00099049604930490048D048A04870484047C
:1000F00081047E047B047804750472046F046C042C
:1001000069046604630460045D045A0457045404DB
:1001100051044E044B044804450442043F043C048B
:1001200039043604330430042D042A042704000162
:10013000000062011200020000740143000300008D
:10014000B7010401030904BB011202030904CF0132
:100150000603030904D701080001C112018036011A
:1001600081361201000202000010C0167A0400015C
:100170000102030109024300020100C03209040028
:100180000001020201000524001001052401010103
:10019000042402060524060001070582031000401E
:1001A00009040100020A00000007050302400000E4
:1001B000070584024000000403090412034A002ECC
:1001C0000020004600690065006E00650000000622
:1001D000034D0032000000080334003100300000FD
:1001E000000011241FBECFEFDAE0DEBFCDBF11E06B
:1001F000A0E0B1E0EAEFF4E102C005900D92A83072
:10020000B107D9F711E0A8E0B1E001C01D92A63115
:10021000B107E1F70E9427080C947B0A0C940000B8
:10022000589A599A5A9A8CE08093B800E9E6F0E01F
:1002300080818062808380818F7E8083EA9A789437
:10024000089584E88093BC00ECEBF0E08081882383
:10025000ECF78091BB00089584E98093BC00089579
:1002600020E030E0ECEBF0E08081882334F02F5F79
:100270003F4F83E0293E3807B9F781E093E0283EFD
:10028000390709F480E008958093BB0084E88093E7
:10029000BC000E943001882321F08091B900887F42
:1002A000089580E00895CF93DF93C82FD62F84EA76
:1002B0008093BC000E943001882321F40E942C010D
:1002C00080E01AC0DD2359F08C2F880F8F5F0E94C9
:1002D0004401883471F40E942C0180E00DC08C2F01
:1002E000880F0E944401803231F40E942C0180E08A
:1002F00003C081E001C081E0DF91CF910895CF93E9
:10030000DF93C62FD42F60E00E945301882371F041
:100310008C2F0E944401882359F08D2F0E944401A4
:10032000882341F00E942C0181E005C080E003C0D9
:1003300080E001C080E0DF91CF910895CF93DF93FB
:10034000C82FD62F60E00E945301882381F08D2FA3
:100350000E944401882369F00E942C018C2F61E0E7
:100360000E945301882339F00E94210105C080E0DA
:1003700003C080E001C080E0DF91CF9108951F931A
:10038000CF93DF93C82FD62F142F0E94100184EA39
:100390008093BC00ECEBF0E080818823ECF780E5F3
:1003A0008093BB0084E88093BC00ECEBF0E080819C
:1003B0008823ECF78091B900887F803229F484E9A2
:1003C0008093BC0080E02DC081E08093BB0084E876
:1003D0008093BC00ECEBF0E080818823ECF7C093C5
:1003E000BB0084E88093BC00ECEBF0E080818823C4
:1003F000ECF7D093BB0084E88093BC00ECEBF0E01A
:1004000080818823ECF71093BB0084E88093BC00C4
:10041000ECEBF0E080818823ECF784E98093BC006A
:1004200081E0DF91CF911F910895CF93DF93AC01CD
:1004300084EA8093BC00ECEBF0E080818823ECF749
:1004400081E58093BB0084E88093BC00ECEBF0E096
:1004500080818823ECF78091B900887F883429F463
:1004600084E98093BC0080E03EC084EC8093BC00B3
:10047000ECEBF0E080818823ECF72091BB0026179D
:1004800049F430E0215030401216130644F020E0C9
:1004900030E017C084E98093BC0080E024C0DA011A
:1004A00080E090E0ECEBF0E074ECCBEBD0E070831C
:1004B00060816623ECF768816D930196821793073C
:1004C000B4F384E88093BC00ECEBF0E080818823F7
:1004D000ECF78091BB00240F351FF901808384E97C
:1004E0008093BC0081E0DF91CF910895CF93DF939B
:1004F000F89494EA9093BC00ECEBF0E0908199239F
:10050000ECF790E59093BB0094E89093BC00ECEB83
:10051000F0E090819923ECF79091B900987F9032A8
:1005200031F484E98093BC00789480E032C093E099
:100530009093BB0094E89093BC00ECEBF0E09081CA
:100540009923ECF78093BB0084E88093BC00ECEB2C
:10055000F0E080818823ECF7242F30E01216130698
:100560009CF4A62FB72F80E090E0CBEBD0E0ECEB33
:10057000F0E054E84D914883508340814423ECF7E8
:10058000019682179307B4F384E98093BC007894B2
:1005900081E0DF91CF91089581E08093D70080EAD8
:1005A0008093D80082E189BD09B400FEFDCF80E9C7
:1005B0008093D8001092E0001092090110920A0175
:1005C0008CE08093E2007894089580910901089569
:1005D0009FB7F89480910901882319F49FBF8FEF8A
:1005E000089583E08093E9008091E80085FD03C0D1
:1005F0009FBF8FEF08958091F1002091E80025FDC5
:1006000003C02BE62093E8009FBF08959FB7F8949E
:1006100080910901882331F083E08093E900809183
:10062000F20001C080E09FBF0895809109018823F6
:1006300089F02FB7F89483E08093E9008091E80077
:1006400085FF07C0E8EEF0E09BE69083808185FDA2
:10065000FCCF2FBF0895CF93DF9390910901992389
:1006600009F44DC09FB7F89424E02093E90020914D
:100670000B01222349F02091E80025FD03C09FBF14
:100680008FEF42C010920B013091E4002091E800FE
:1006900025FD26C0375E9FBF9091E400931749F077
:1006A00090910901992379F42CC09FBF98819317E9
:1006B00029F481E080930B018FEF26C0909109010E
:1006C000992341F420C0A9EEB0E044E0E8EEF0E068
:1006D000C4EED0E09FB7F8944C93208125FFE5CF7E
:1006E0008093F1008091E80085FD03C08AE3809348
:1006F000E80085E0809308019FBF80E005C08FEF90
:1007000003C08FEF01C08FEFDF91CF9108959091DB
:1007100009019923D9F02FB7F89494E09093E90058
:100720009091E80095FD03C02FBF8FEF089580934F
:10073000F1008091E80085FD03C08AE38093E80022
:1007400085E0809308012FBF80E008958FEF089522
:100750009F92AF92BF92CF92DF92EF92FF920F9350
:100760001F93CF93DF93DC017B01809109018823E4
:1007700009F43AC12FB7F89484E08093E90080919E
:100780000B01882349F08091E80085FD03C02FBF4D
:100790008FEF2FC110920B01E114F10409F421C174
:1007A000C4EED0E048EE50E009EE10E034E00F2E49
:1007B000F2EFAF2EBB24F02DDD246894D6F861EF64
:1007C00070E00F2EFAE39F2EF02D0F2EF5E0CF2EC6
:1007D000F02D9881FA01808185FD20C0975E2FBFA2
:1007E0008881891749F080910901882379F4FEC036
:1007F0002FBF8881891729F481E080930B018FEF47
:10080000F8C080910901882309F4F2C02FB7F89449
:10081000F8013083FA01808185FFEACFF5018081FC
:10082000ED2DE81B8E2F90E0E816F90608F4EE2D6A
:10083000EE1AF108F0E0E134F10508F0C5C0EA5A1B
:10084000FF4FEE0FFF1F0590F491E02D09948D915D
:10085000FB0180838D91FB0180838D91FB0180835F
:100860008D91FB0180838D91FB0180838D91FB0134
:1008700080838D91FB0180838D91FB0180838D911D
:10088000FB0180838D91FB0180838D91FB0180832F
:100890008D91FB0180838D91FB0180838D91FB0104
:1008A00080838D91FB0180838D91FB0180838D91ED
:1008B000FB0180838D91FB0180838D91FB018083FF
:1008C0008D91FB0180838D91FB0180838D91FB01D4
:1008D00080838D91FB0180838D91FB0180838D91BD
:1008E000FB0180838D91FB0180838D91FB018083CF
:1008F0008D91FB0180838D91FB0180838D91FB01A4
:1009000080838D91FB0180838D91FB0180838D918C
:10091000FB0180838D91FB0180838D91FB0180839E
:100920008D91FB0180838D91FB0180838D91FB0173
:1009300080838D91FB0180838D91FB0180838D915C
:10094000FB0180838D91FB0180838D91FB0180836E
:100950008D91FB0180838D91FB0180838D91FB0143
:1009600080838D91FB0180838D91FB0180838D912C
:10097000FB0180838D91FB0180838D91FB0180833E
:100980008D91FB0180838D91FB0180838D91FB0113
:1009900080838D91FB0180838D91FB0180838D91FC
:1009A000FB0180838D91FB0180838D91FB0180830E
:1009B0008D91FB0180838D91FB0180838D91FB01E3
:1009C00080838D91FB0180838D91FB018083FA01EF
:1009D000808185FF9082C0920801E114F10409F042
:1009E000F8CE2FBF80E005C08FEF03C08FEF01C0AE
:1009F0008FEFDF91CF911F910F91FF90EF90DF90DC
:100A0000CF90BF90AF909F9008958FB7F89490913A
:100A10000801992341F094E09093E9009AE39093C0
:100A2000E800109208018FBF089580910401089595
:100A300080910501089580910601089580910A0131
:100A400008952FB7F89490910901992319F42FBFB5
:100A50008FEF089592E09093E9009091E80095FD62
:100A600003C02FBF8FEF0895E1EFF0E091EA90838C
:100A700090E29083108210821082108292E0908324
:100A80001082808310828AE38093E8002FBF80E089
:100A900008951F920F920FB60F9211248F939F9378
:100AA000EF93FF93E1EEF0E08081108283FF11C0AD
:100AB0001092E90091E09093EB001092EC0092E12B
:100AC0009093ED0098E09093F0001092090110923D
:100AD0000A0182FF13C080910901882379F0809177
:100AE0000801882359F0815080930801882331F44C
:100AF00084E08093E9008AE38093E800FF91EF911E
:100B00009F918F910F900FBE0F901F9018951F927D
:100B10000F920FB60F9211240F931F932F933F93B1
:100B20004F935F936F937F938F939F93AF93BF93F5
:100B3000CF93DF93EF93FF931092E9008091E80049
:100B400083FF5BC1E1EFF0E040815081608170E0A4
:100B50002081922F80E0682B792B208130E0A081CA
:100B60009A2F80E0DC01A22BB32B3081C08182EF71
:100B70008093E800563009F063C004C081E280939E
:100B8000EB003EC126E04EE251E0FA0185919491DE
:100B90006817790719F0495F5F4F24C0FA01329650
:100BA00085919491A817B90719F0495F5F4F1AC052
:100BB000FA01349685919491682F792F4A5F5F4F9F
:100BC000FA014491232F30E09C2F80E0822B932B5D
:100BD0008F3F910519F010F08FEF90E0841728F403
:100BE000482F03C0215089F6C9CFC8EED0E05EEF90
:100BF000A1EFB0E010E1888190E09C012570307099
:100C000021153105C1F382FDFBC0242F413108F0CD
:100C1000212F222371F0CB01322FFC010196E491A8
:100C2000EC933150D1F7822F815090E00196680FFC
:100C3000791F421B58834423F1F62031E1F2E0C0D2
:100C4000553061F48EEF8093E800E8EEF0E08081AB
:100C500080FFFDCF60686093E300D2C05930A1F5FA
:100C6000442391F56093090110920A011092080142
:100C70008EEF8093E80041E028E531E0A9EEB0E096
:100C8000CBEED0E06CEE70E00DEE10E04C93C901BD
:100C90000196F90154915883552361F0FC01849128
:100CA000FB018083F90132962D5F3F4F8491F8015B
:100CB000808301C09C014F5F453041F7EAEEF0E0D0
:100CC0008EE1808310829CC0583079F4403869F4FA
:100CD000E8EEF0E0808180FFFDCF809109018093F4
:100CE000F1008EEF8093E8008BC05132B1F4413AAD
:100CF000A1F4E8EEF0E0808180FFFDCFE0E0F1E0DC
:100D0000CF010796A1EFB0E021912C93E817F907E6
:100D1000D9F78EEF8093E80073C05032C9F44132A6
:100D2000B9F4E8EEF0E0808182FFFDCFE0E0F1E091
:100D3000CF010796A1EFB0E02C912193E817F907B6
:100D4000D9F7E8EEF0E08BEF80838EEF808358C018
:100D5000523269F4413259F460930A01E8EEF0E04E
:100D6000808180FFFDCF8EEF8093E80049C055233E
:100D7000D1F4E8EEF0E0808180FFFDCF423851F4FD
:100D8000A093E9009091EB0081E095FF80E0109244
:100D9000E90001C080E0E1EFF0E0808310828EEF97
:100DA0008093E8002DC0513011F0533031F54230BE
:100DB00021F56115710509F58A2F8F77982F9150CC
:100DC0009430D8F49EEF9093E8008093E90053307C
:100DD00021F481E28093EB0013C099E19093EB0042
:100DE00021E030E0A90102C0440F551F8A95E2F7C7
:100DF000EAEEF0E04083108203C081E28093EB00D2
:100E0000FF91EF91DF91CF91BF91AF919F918F9122
:100E10007F916F915F914F913F912F911F910F9112
:100E20000F900FBE0F901F9018950F931F93CF93A5
:100E3000FC01C491CC2389F08C010F5F1F4FCA3095
:100E400019F48DE00E942B038C2F0E942B03F801D4
:100E50000F5F1F4FC491CC2391F7CF911F910F913A
:100E600008958A3010F490E301C097E3890F0E943F
:100E70002B030895CF93C82F82958F700E9431075E
:100E80008C2F8F700E943107CF910895CF93C82F78
:100E9000892F0E943A078C2F0E943A07CF9108951C
:100EA0000E943A070895EF92FF920F931F93CF93FA
:100EB000DF93CDB7DEB727970FB6F894DEBF0FBE2E
:100EC000CDBF8E010F5F1F4F27E0F80111922A95C9
:100ED000E9F7B8014AE050E00E94A50978018E01C7
:100EE000085F1F4FF70181917F01882311F00E9455
:100EF0002B03E016F106B1F727960FB6F894DEBF84
:100F00000FBECDBFDF91CF911F910F91FF90EF905A
:100F10000895EF92FF920F931F93CF93DF9300D02A
:100F200000D00F92CDB7DEB78E010F5F1F4F25E0C7
:100F3000F80111922A95E9F7B8014AE050E00E94C1
:100F40001F0A78018E010A5F1F4FF70181917F010F
:100F5000882311F00E942B03E016F106B1F70F90E1
:100F60000F900F900F900F90DF91CF911F910F91E5
:100F7000FF90EF900895EF92FF920F931F93CF93FE
:100F8000DF93CDB7DEB72B970FB6F894DEBF0FBE59
:100F9000CDBF8E010F5F1F4F2BE0F80111922A95F4
:100FA000E9F7A8012AE030E00E94C60978018E0125
:100FB000045F1F4FF70181917F01882311F00E9488
:100FC0002B03E016F106B1F72B960FB6F894DEBFAF
:100FD0000FBECDBFDF91CF911F910F91FF90EF908A
:100FE0000895EF92FF920F931F93CF93DF93CDB7A6
:100FF000DEB72A970FB6F894DEBF0FBECDBF8E01C5
:101000000F5F1F4F2AE0F80111922A95E9F7A80116
:101010002AE030E00E94FA0978018E01055F1F4F37
:10102000F70181917F01882311F00E942B03E016C4
:10103000F106B1F72A960FB6F894DEBF0FBECDBF0A
:10104000DF91CF911F910F91FF90EF900895CF9373
:10105000DF93CDB7DEB728970FB6F894DEBF0FBE8B
:10106000CDBFFE01319688E0DF011D928A95E9F738
:10107000E1E6F0E080E8808310820E94EC080E94A4
:10108000CC020E94E5028823E1F3789499246894C5
:1010900093F83E010894611C711CB62CA72C0F2EEE
:1010A000F9E0CF2EDD24F02DCC0EDD1E4424552496
:1010B0000F2EFCE0EF2EF1E0FF2EF02D0E94060334
:1010C000882349F1F301892D11928A95E9F70B2DB7
:1010D0001A2D08C00C151D0549F00E94E802D80120
:1010E0008D938D010E9406038823A1F78FE40E944F
:1010F0002B038BE40E942B038AE00E942B03E7EA78
:10110000F1E63197F1F700C000008B2D9A2D68E0D1
:1011100070E00E9472098091140190911501813054
:10112000910561F68201F701E00FF11F80818823AC
:1011300031F0F701E00FF11F80810E942B030F5F58
:101140001F4F0830110579F7509215014092140194
:10115000B5CF1F920F920FB60F9211242F933F938A
:101160004F935F936F937F938F939F93AF93BF93AF
:10117000EF93FF938CE091E068E00E9415028130CC
:1011800069F480910C01882349F06A9A729881E091
:1011900090E0909315018093140102C06A9A729AAC
:1011A000FF91EF91BF91AF919F918F917F916F913F
:1011B0005F914F913F912F910F900FBE0F901F9015
:1011C0001895181619063CF420E030E02F5F3F4FC9
:1011D00028173907D9F708950E94100181E06DE1C1
:1011E00048E00E94BF0108950F931F93CF93DF93B0
:1011F000CDB7DEB728970FB6F894DEBF0FBECDBFD0
:101200008E010F5F1F4F28E0F80111922A95E9F730
:10121000B8014AE050E00E94A50987E1B80148E022
:101220000E94760288EE93E00E94E10828960FB6AD
:10123000F894DEBF0FBECDBFDF91CF911F910F910C
:1012400008950F931F93CF93DF93CDB7DEB7289701
:101250000FB6F894DEBF0FBECDBF8E010F5F1F4FDC
:1012600028E0F80111922A95E9F7B8014AE050E028
:101270000E941F0A87E1B80148E00E94760288EECA
:1012800093E00E94E10828960FB6F894DEBF0FBEE7
:10129000CDBFDF91CF911F910F910895CF93DF9331
:1012A000CDB7DEB728970FB6F894DEBF0FBECDBF1F
:1012B000BE016F5F7F4F98E0FB0111929A95E9F7AD
:1012C000898387E148E00E94760288EE93E00E94DD
:1012D000E10828960FB6F894DEBF0FBECDBFDF91B0
:1012E000CF910895CF93DF93CDB7DEB728970FB690
:1012F000F894DEBF0FBECDBFFE01319628E0DF01BE
:101300001D922A95E9F7161617065CF4A82FB92F37
:10131000FE0131966E0F7F1F8D918193E617F707BF
:10132000D9F787E1BE016F5F7F4F48E00E947602E8
:1013300088EE93E00E94E10828960FB6F894DEBF8D
:101340000FBECDBFDF91CF910895FB019F01E894BF
:101350004230C4F04532B4F44A3029F497FB1EF40D
:10136000909581959F4F642F77270E94450A805D55
:101370008A330CF0895D8193CB010097A1F716F4B5
:101380005DE251931082C9010C94350AFA01CF93A2
:10139000FF93EF93223044F1253234F5C22FE894C5
:1013A000CA3049F497FB3EF490958095709561950D
:1013B0007F4F8F4F9F4F2C2F332744275527FF9365
:1013C000EF930E94590AEF91FF91605D6A330CF030
:1013D000695D6193B901CA016050704080409040DE
:1013E00051F716F4CDE2C19310828F919F91CF9166
:1013F0000C94350AFA01CF93FF93EF932230CCF08F
:101400002532BCF4C22F2C2F332744275527FF93B6
:10141000EF930E94590AEF91FF91605D6A330CF0DF
:10142000695D6193B901CA0160507040804090408D
:1014300051F710828F919F91CF910C94350AFB0147
:101440009F01423074F0453264F4642F77270E9484
:10145000450A805D8A330CF0895D8193CB0100974A
:10146000A1F71082C9010C94350ADC01FC01672F39
:1014700071917723E1F7329704C07C916D9370836B
:101480006291AE17BF07C8F30895AA1BBB1B51E1B9
:1014900007C0AA1FBB1FA617B70710F0A61BB70BE4
:1014A000881F991F5A95A9F780959095BC01CD0189
:1014B0000895A1E21A2EAA1BBB1BFD010DC0AA1F95
:1014C000BB1FEE1FFF1FA217B307E407F50720F0AD
:1014D000A21BB30BE40BF50B661F771F881F991F28
:1014E0001A9469F760957095809590959B01AC0171
:0A14F000BD01CF010895F894FFCF6D
:0814FA0000E100000000080001
:00000001FF
