:100000000C94F1000C940E010C940E010C940E0152
:100010000C940E010C940E010C940E010C940E0124
:100020000C940E010C940E010C94470B0C94850B50
:100030000C940E010C940E010C940E010C940E0104
:100040000C940E010C940E010C940E010C940E01F4
:100050000C940E010C940E010C940E010C940E01E4
:100060000C940E010C940E010C940E010C940E01D4
:100070000C940E010C940E010C940E010C940E01C4
:100080000C9467050C940E010C940E010C940E0157
:100090000C940E010C940E010C940E010C940E01A4
:1000A0000C940E010C940E010C940E01E50AE20A68
:1000B000DF0ADC0AD90AD60AD30AD00ACD0ACA0A4C
:1000C000C70AC40AC10ABE0ABB0AB80AB50AB20AFC
:1000D000AF0AAC0AA90AA60AA30AA00A9D0A9A0AAC
:1000E000970A940A910A8E0A8B0A880A850A820A5C
:1000F0007F0A7C0A790A760A730A700A6D0A6A0A0C
:10010000670A640A610A5E0A5B0A580A550A520ABB
:100110004F0A4C0A490A460A430A400A3D0A3A0A6B
:10012000370A340A310A2E0A2B0A280A250A000146
:10013000000062011200020000740143000300008D
:10014000B7010401030904BB011202030904CF0132
:100150000603030904D701080001C112018036011A
:1001600081361201000202000010C0167A0400015C
:100170000102030109024300020100C03209040028
:100180000001020201000524001001052401010103
:10019000042402060524060001070582031000401E
:1001A00009040100020A00000007050302400000E4
:1001B000070584024000000403090412034A002ECC
:1001C0000020004600690065006E00650000000622
:1001D000034D0032000000080334003100300000FD
:1001E000000011241FBECFEFDAE0DEBFCDBF11E06B
:1001F000A0E0B1E0EAEFF2E202C005900D92A83271
:10020000B107D9F711E0A8E2B1E001C01D92AE3606
:10021000B107E1F70E9425040C947B110C940000B7
:100220002F923F924F925F926F927F928F929F9206
:10023000AF92BF92CF92DF92EF92FF920F931F93F4
:10024000CF93DF93CDB7DEB7AA970FB6F894DEBF92
:100250000FBECDBF6D837E838F83988729A33AA37A
:100260004BA35CA340915201509153016091540102
:10027000709155014D8B5E8B6F8B788F6091110162
:1002800070911201809113019091140169877A870E
:100290008B879C8769A17AA18BA19CA12D893E891E
:1002A0004F89588D0E94B60E29853A854B855C850D
:1002B0000E944210209156013091570140915801FF
:1002C000509159010E94B70E6DA37EA38FA398A7EA
:1002D0004090050150900601609007017090080160
:1002E0008091090190910A01A0910B01B0910C013C
:1002F00089839A83AB83BC8360911D0170911E0139
:1003000080911F0190912001A30192010E94B60EDD
:1003100029813A814B815C810E94B60EB62FA72FAE
:10032000382F292F982F4B2F5A2F692F722F409338
:1003300028015093290160932A0170932B01409169
:100340000D0150910E0160910F0170911001498FC4
:100350005A8F6B8F7C8F6A017B01F7FAF094F7F864
:10036000F094C0922C01D0922D01E0922E01F092D7
:100370002F01C0923001D0923101E0923201F0920F
:1003800033016091190170911A0180911B019091C4
:100390001C016D8F7E8F8F8F98A3609334017093B3
:1003A0003501809336019093370185E091E09A8B77
:1003B000898B69857A858B859C85422F0B2F1A2F17
:1003C000232F342FA90198010E944210A989BA89CC
:1003D0005E914E913E912E91BA8BA98B0E94B70EE1
:1003E000B62EA72E982E892E69857A858B859C85B9
:1003F000A70196010E944210E62ED72EF82EC92E94
:10040000C301B2010E2D1D2D2F2D3C2DA9019801E8
:100410000E94B70E6D877E878F87988B69817A815E
:100420008B819C812F2D3C2DA90198010E94B70E34
:10043000462E772E682E592E6D817E818F8198856C
:10044000FDA1EEA15FA148A50F2F1E2F252F342F50
:10045000A90198010E94B60E69837D838B8B9C8BCA
:10046000472F382F292F862F942FA32FB22F809319
:100470006A0190936B01A0936C01B0936D018B2D79
:100480009A2DA92DB82D80934E0190934F01A093E2
:100490005001B0935101842D972DA62DB52D809339
:1004A0005A0190935B01A0935C01B0935D018B2D89
:1004B0009A2DA92DB82DBC01CD01209115013091A7
:1004C000160140911701509118010E94B70EC62ED7
:1004D00079A78AA7F92E472F382F862F942FA32F7D
:1004E000BF2D8093620190936301A0936401B09348
:1004F00065018B2D9A2DA92DB82DBC01CD01E9A543
:100500005AA50C2D1E2F252F3F2DA90198010E94C1
:100510001B0FE62ED72E382E292E862F9D2DA32D8C
:10052000B22D8093660190936701A0936801B09308
:100530006901842D972DA62DB52DBC01CD015AA59D
:10054000252F3F2DA90198010E941B0FC62E79A7C8
:100550008AA7F92E472F382F862F942FA32FBF2D30
:1005600080935E0190935F01A0936001B09361015D
:100570008B2D9A2DA92DB82D80934A0190934B0174
:10058000A0934C01B0934D015D854E853F85288930
:10059000852F942FA32FB22F809342019093430174
:1005A000A0934401B09345018B2D9A2DA92DB82D10
:1005B000BC01CD010E2D1D2D232D322DA901980139
:1005C0000E9442109B01AC018B2D9A2DA92DB82DB4
:1005D000BC01CD010E94B60EDC01CB01E989FA898C
:1005E00080839183A283B3835D854E853F8528896F
:1005F000852F942FA32FB22FBC01CD01232D322D97
:10060000A90198010E9442109B01AC01FD85EE8575
:100610007F8568898F2F9E2FA72FB62FBC01CD0114
:100620000E94B60EDC01CB01809305019093060178
:10063000A0930701B09308018B2D9A2DA92DB82DF9
:10064000BC01CD01E9A55AA50C2D1E2F252F3F2D4C
:10065000A90198010E9442109B01AC01842D972DA5
:10066000A62DB52DBC01CD010E94B60EDC01CB013B
:100670008093090190930A01A0930B01B0930C01A0
:1006800069857A858B859C852D8D3E8D4F8D58A1F2
:100690000E9442109B01AC01698D7A8D8B8D9C8DDF
:1006A0000E94B70E2B013C015D854E853F85288950
:1006B000852F942FA32FB22FBC01CD015AA5252F32
:1006C0003F2DA90198010E9442109B01AC01C3017A
:1006D000B2010E94B60EDC01CB0180930D01909314
:1006E0000E01A0930F01B093100159814D813B89F8
:1006F0002C89852F942FA32FB22FBC01CD010E2D55
:100700001D2D232D322DA90198010E9442109B011D
:10071000AC01FDA1EEA17FA168A58F2F9E2FA72F71
:10072000B62FBC01CD010E94B70EDC01CB01809336
:10073000560190935701A0935801B09359015981E4
:100740004D813B892C89852F942FA32FB22FBC017B
:10075000CD01E9A55AA50C2D1E2F252F3F2DA9014E
:1007600098010E9442109B01AC016D897E898F899E
:10077000988D0E94B70EB62FA72F382F292F982FAC
:100780004B2F5A2F692F722F4093520150935301D0
:10079000609354017093550169A17AA18BA19CA12A
:1007A000422F0B2F1A2F232F342FA90198010E94BB
:1007B000B60EDC01CB018093460190934701A093D4
:1007C0004801B0934901AA960FB6F894DEBF0FBE58
:1007D000CDBFDF91CF911F910F91FF90EF90DF90F0
:1007E000CF90BF90AF909F908F907F906F905F90D1
:1007F0004F903F902F90089580EA9FE0909389005A
:100800008093880080ED97E090938B0080938A001E
:1008100090938D0080938C00269A279A8BE2809388
:10082000800089E1809381008EE490E090939900AC
:1008300080939800109290008DE080939100E1E702
:10084000F0E08081826080830895CF93DF93CDB7FD
:10085000DEB764970FB6F894DEBF0FBECDBFFE01C2
:10086000319682E1DF011D928A95E9F7E1E6F0E039
:1008700080E8808310820E94300E0E94FC030E9458
:10088000CA0881E090E060E070E00E944A060097AC
:10089000C1F378940E94E3088823E1F300E010E0BC
:1008A0001C8A1B8A2224332480913C0190913D01B3
:1008B0008130910509F0E1C0CE0101960E94B70692
:1008C000009729F06E9A8EB1B0E48B278EB96B81B8
:1008D0007C816A527040882777FD8095982F0E940E
:1008E000B60F20E030E040EC5FE30E9442106B0165
:1008F0007C016F8178856A5C7F4F882777FD8095C2
:10090000982F0E94B60F20E030E040E05FE30E94A5
:1009100042109B01AC01C701B6010E941001C090BA
:100920005601D0905701E0905801F0905901B8015C
:10093000882777FD8095982F0E94B60F2B013C01E8
:10094000B101882777FD8095982F0E94B60F9B01F3
:10095000AC01C701B6010E94B60E0E94830F882722
:1009600077FD8095982F0E94B60F4B015C01C7015F
:10097000B6010E94830F882777FD8095982F0E94EB
:10098000B60F20E030E0A9010E9442109B01AC01AB
:10099000C501B4010E94B70E4B015C01EB89FC89D3
:1009A000BF01882777FD8095982F0E94B60F9B0185
:1009B000AC01C701B6010E94B70E6B017C01B10109
:1009C000660F771F882777FD8095982F0E94B60FB6
:1009D0009B01AC01C701B6010E94B60E0E94830FB5
:1009E000882777FD8095982F0E94B60F20E030E091
:1009F00040E05FE30E9442109B01AC01C501B401DD
:100A00000E94B70E9B01AC01C301B2010E94B70E58
:100A1000462F572F682F792FCB01BA010E94830FE1
:100A20008B019C01CB018053984FFFE0813A9F07D7
:100A300024F48330910524F005C080EA9FE002C0D1
:100A400083E090E0AAE8B0E011969C938E93ECE8E6
:100A5000F0E09183808360915601709157018091FD
:100A60005801909159010E94830F10923D011092FC
:100A70003C013C8A2B8A262E372E80913A01909198
:100A80003B018331910509F00FCF609156017091C0
:100A9000570180915801909159010E94830FDC0108
:100AA000CB016A9A2EB1F4E02F272EB90E94510D86
:100AB00089E00E9429098B819C810E94510D8AE066
:100AC0000E94290910923B0110923A01EDCE1F922B
:100AD0000F920FB60F9211248F939F9381E090E0B5
:100AE00090933D0180933C018091380190913901B0
:100AF000181619064CF08091380190913901019631
:100B0000909339018093380180913A0190913B0193
:100B1000833191054CF480913A0190913B0101960B
:100B200090933B0180933A019F918F910F900FBE5C
:100B30000F901F901895589A599A5A9A8CE0809362
:100B4000B800E9E6F0E080818062808380818F7E5A
:100B50008083EA9A7894089584E88093BC00ECEB53
:100B6000F0E080818823ECF78091BB00089584E950
:100B70008093BC00089520E030E0ECEBF0E0808151
:100B8000882334F02F5F3F4F83E0293E3807B9F7C1
:100B900081E093E0283E390709F480E008958093CE
:100BA000BB0084E88093BC000E94BB05882321F031
:100BB0008091B900887F089580E00895CF93DF93F6
:100BC000C82FD62F84EA8093BC000E94BB058823DF
:100BD00021F40E94B70580E01AC0DD2359F08C2F64
:100BE000880F8F5F0E94CF05883471F40E94B7058B
:100BF00080E00DC08C2F880F0E94CF05803231F429
:100C00000E94B70580E003C081E001C081E0DF9170
:100C1000CF910895CF93DF93C62FD42F60E00E9429
:100C2000DE05882371F08C2F0E94CF05882359F0B0
:100C30008D2F0E94CF05882341F00E94B70581E0E7
:100C400005C080E003C080E001C080E0DF91CF916B
:100C50000895CF93DF93C82FD62F60E00E94DE0562
:100C6000882381F08D2F0E94CF05882369F00E9490
:100C7000B7058C2F61E00E94DE05882339F00E94C1
:100C8000AC0505C080E003C080E001C080E0DF91DA
:100C9000CF910895CF93DF93C82FD62F843008F0DB
:100CA0005EC0643008F05DC00E949B058FE59AEE3F
:100CB000A0E081509040A040E1F700C0000089E62C
:100CC00065E70E942906883609F04DC089E66BE683
:100CD00041E00E940A064C2F440F440F440F89E65E
:100CE0006CE10E940A064D2F440F440F440F89E621
:100CF0006BE10E940A0689E667E342E00E940A0669
:100D00008EE162E040E00E940A0689E667E340E087
:100D10000E940A0689E664E34EE10E940A0689E61B
:100D200067E641E00E940A0689E664E24DE10E941E
:100D30000A0689E665E24EE90E940A0689E666E24D
:100D400043E00E940A0689E667E246E90E940A0635
:100D500089E66AE640E20E940A0681E005C080E07A
:100D600003C080E001C080E0DF91CF910895CF9271
:100D7000DF92FF920F931F93CF93DF93CDB7DEB730
:100D800064970FB6F894DEBF0FBECDBF6C018E0125
:100D90000F5F1F4F0F2EFEE4FF2EF02D89E66F2D03
:100DA0000E942906F80181938F01FA94FAE3FF1655
:100DB000A9F78F859889F601958384838F8198851B
:100DC0009387828789819A81918B808B89899A897F
:100DD0009383828389859A85918780878B819C8183
:100DE000978786878B899C89918380838B859C8557
:100DF000978386838D819E819587848781E0649621
:100E00000FB6F894DEBF0FBECDBFDF91CF911F911B
:100E10000F91FF90DF90CF900895CF92DF92FF92D5
:100E20000F931F93CF93DF9300D000D000D0CDB7A6
:100E3000DEB76C018E010F5F1F4FFF246894F6F838
:100E400089E66F2D0E942906F80181938F01FA949B
:100E5000FAE3FF16A9F789819A81F60195838483C5
:100E60008B819C81938382838D819E8191838083FA
:100E700081E026960FB6F894DEBF0FBECDBFDF919E
:100E8000CF911F910F91FF90DF90CF900895CF9257
:100E9000DF92FF920F931F93CF93DF9300D000D088
:100EA00000D0CDB7DEB76C018E010F5F1F4F0F2E44
:100EB000F8E4FF2EF02D89E66F2D0E942906F80137
:100EC00081938F01FA94F2E4FF16A9F789819A8140
:100ED000F601958384838B819C81938382838D81AA
:100EE0009E819183808381E026960FB6F894DEBFC1
:100EF0000FBECDBFDF91CF911F910F91FF90DF907B
:100F0000CF900895CF92DF92FF920F931F93CF93CC
:100F1000DF9300D000D000D0CDB7DEB76C018E01DA
:100F20000F5F1F4F0F2EFEE4FF2EF02D89E66F2D71
:100F30000E942906F80181938F01FA94F8E4FF16C4
:100F4000A9F789819A81F601958384838B819C819D
:100F5000938382838D819E819183808381E0269615
:100F60000FB6F894DEBF0FBECDBFDF91CF911F91BA
:100F70000F91FF90DF90CF9008951F93CF93DF9351
:100F8000C82FD62F142F0E949B0584EA8093BC00A3
:100F9000ECEBF0E080818823ECF780E58093BB00E8
:100FA00084E88093BC00ECEBF0E080818823ECF7D0
:100FB0008091B900887F803229F484E98093BC0055
:100FC00080E02DC081E08093BB0084E88093BC006A
:100FD000ECEBF0E080818823ECF7C093BB0084E861
:100FE0008093BC00ECEBF0E080818823ECF7D09399
:100FF000BB0084E88093BC00ECEBF0E080818823A8
:10100000ECF71093BB0084E88093BC00ECEBF0E0BD
:1010100080818823ECF784E98093BC0081E0DF9134
:10102000CF911F910895CF93DF93AC0184EA809311
:10103000BC00ECEBF0E080818823ECF781E5809345
:10104000BB0084E88093BC00ECEBF0E08081882357
:10105000ECF78091B900887F883429F484E9809383
:10106000BC0080E03EC084EC8093BC00ECEBF0E080
:1010700080818823ECF72091BB00261749F430E0EB
:10108000215030401216130644F020E030E017C023
:1010900084E98093BC0080E024C0DA0180E090E025
:1010A000ECEBF0E074ECCBEBD0E070836081662376
:1010B000ECF768816D93019682179307B4F384E887
:1010C0008093BC00ECEBF0E080818823ECF780910A
:1010D000BB00240F351FF901808384E98093BC0095
:1010E00081E0DF91CF910895CF93DF93F89494EA54
:1010F0009093BC00ECEBF0E090819923ECF790E545
:101100009093BB0094E89093BC00ECEBF0E09081EE
:101110009923ECF79091B900987F903231F484E9EB
:101120008093BC00789480E032C093E09093BB0041
:1011300094E89093BC00ECEBF0E090819923ECF7FD
:101140008093BB0084E88093BC00ECEBF0E08081EE
:101150008823ECF7242F30E0121613069CF4A62FF8
:10116000B72F80E090E0CBEBD0E0ECEBF0E054E880
:101170004D914883508340814423ECF701968217B8
:101180009307B4F384E98093BC00789481E0DF9105
:10119000CF91089581E08093D70080EA8093D800B2
:1011A00082E189BD09B400FEFDCF80E98093D800BB
:1011B0001092E00010923F01109240018CE0809369
:1011C000E2007894089580913F0108959FB7F894C4
:1011D00080913F01882319F49FBF8FEF089583E02A
:1011E0008093E9008091E80085FD03C09FBF8FEFE9
:1011F00008958091F1002091E80025FD03C02BE6C1
:101200002093E8009FBF08959FB7F89480913F0115
:10121000882331F083E08093E9008091F20001C0DF
:1012200080E09FBF089580913F01882389F02FB708
:10123000F89483E08093E9008091E80085FF07C07F
:10124000E8EEF0E09BE69083808185FDFCCF2FBF28
:101250000895CF93DF9390913F01992309F44DC0F6
:101260009FB7F89424E02093E900209141012223C4
:1012700049F02091E80025FD03C09FBF8FEF42C0D9
:10128000109241013091E4002091E80025FD26C034
:10129000375E9FBF9091E400931749F090913F0112
:1012A000992379F42CC09FBF9881931729F481E08A
:1012B000809341018FEF26C090913F01992341F423
:1012C00020C0A9EEB0E044E0E8EEF0E0C4EED0E0EB
:1012D0009FB7F8944C93208125FFE5CF8093F100D0
:1012E0008091E80085FD03C08AE38093E80085E0F3
:1012F00080933E019FBF80E005C08FEF03C08FEF5A
:1013000001C08FEFDF91CF91089590913F01992314
:10131000D9F02FB7F89494E09093E9009091E80009
:1013200095FD03C02FBF8FEF08958093F10080914A
:10133000E80085FD03C08AE38093E80085E08093A0
:101340003E012FBF80E008958FEF08959F92AF92E6
:10135000BF92CF92DF92EF92FF920F931F93CF93A2
:10136000DF93DC017B0180913F01882309F43AC1BE
:101370002FB7F89484E08093E9008091410188239D
:1013800049F08091E80085FD03C02FBF8FEF2FC18A
:1013900010924101E114F10409F421C1C4EED0E03E
:1013A00048EE50E009EE10E034E00F2EF2EFAF2EE1
:1013B000BB24F02DDD246894D6F861EF70E00F2E89
:1013C000FAE39F2EF02D0F2EF5E0CF2EF02D988111
:1013D000FA01808185FD20C0975E2FBF8881891723
:1013E00049F080913F01882379F4FEC02FBF8881A6
:1013F000891729F481E0809341018FEFF8C0809133
:101400003F01882309F4F2C02FB7F894F801308324
:10141000FA01808185FFEACFF5018081ED2DE81B7F
:101420008E2F90E0E816F90608F4EE2DEE1AF1087A
:10143000F0E0E134F10508F0C5C0EA5AFF4FEE0FC5
:10144000FF1F0590F491E02D09948D91FB0180839D
:101450008D91FB0180838D91FB0180838D91FB0138
:1014600080838D91FB0180838D91FB0180838D9121
:10147000FB0180838D91FB0180838D91FB01808333
:101480008D91FB0180838D91FB0180838D91FB0108
:1014900080838D91FB0180838D91FB0180838D91F1
:1014A000FB0180838D91FB0180838D91FB01808303
:1014B0008D91FB0180838D91FB0180838D91FB01D8
:1014C00080838D91FB0180838D91FB0180838D91C1
:1014D000FB0180838D91FB0180838D91FB018083D3
:1014E0008D91FB0180838D91FB0180838D91FB01A8
:1014F00080838D91FB0180838D91FB0180838D9191
:10150000FB0180838D91FB0180838D91FB018083A2
:101510008D91FB0180838D91FB0180838D91FB0177
:1015200080838D91FB0180838D91FB0180838D9160
:10153000FB0180838D91FB0180838D91FB01808372
:101540008D91FB0180838D91FB0180838D91FB0147
:1015500080838D91FB0180838D91FB0180838D9130
:10156000FB0180838D91FB0180838D91FB01808342
:101570008D91FB0180838D91FB0180838D91FB0117
:1015800080838D91FB0180838D91FB0180838D9100
:10159000FB0180838D91FB0180838D91FB01808312
:1015A0008D91FB0180838D91FB0180838D91FB01E7
:1015B00080838D91FB0180838D91FB0180838D91D0
:1015C000FB0180838D91FB018083FA01808185FF7F
:1015D0009082C0923E01E114F10409F0F8CE2FBFD1
:1015E00080E005C08FEF03C08FEF01C08FEFDF9168
:1015F000CF911F910F91FF90EF90DF90CF90BF9010
:10160000AF909F9008958FB7F89490913E019923E1
:1016100041F094E09093E9009AE39093E8001092EF
:101620003E018FBF08958091250108958091260184
:1016300008958091270108958091400108952FB762
:10164000F89490913F01992319F42FBF8FEF0895DB
:1016500092E09093E9009091E80095FD03C02FBFC0
:101660008FEF0895E1EFF0E091EA908390E29083AC
:10167000108210821082108292E090831082808308
:1016800010828AE38093E8002FBF80E008951F92C4
:101690000F920FB60F9211248F939F93EF93FF93A6
:1016A000E1EEF0E08081108283FF11C01092E9002A
:1016B00091E09093EB001092EC0092E19093ED009A
:1016C00098E09093F00010923F011092400182FF49
:1016D00013C080913F01882379F080913E018823D7
:1016E00059F0815080933E01882331F484E0809347
:1016F000E9008AE38093E800FF91EF919F918F9139
:101700000F900FBE0F901F9018951F920F920FB65B
:101710000F9211240F931F932F933F934F935F9337
:101720006F937F938F939F93AF93BF93CF93DF93E9
:10173000EF93FF931092E9008091E80083FF5BC173
:10174000E1EFF0E040815081608170E02081922FD4
:1017500080E0682B792B208130E0A0819A2F80E0F7
:10176000DC01A22BB32B3081C08182EF8093E80093
:10177000563009F063C004C081E28093EB003EC1A3
:1017800026E04EE251E0FA018591949168177907BD
:1017900019F0495F5F4F24C0FA0132968591949108
:1017A000A817B90719F0495F5F4F1AC0FA013496BC
:1017B00085919491682F792F4A5F5F4FFA01449188
:1017C000232F30E09C2F80E0822B932B8F3F9105BD
:1017D00019F010F08FEF90E0841728F4482F03C021
:1017E000215089F6C9CFC8EED0E05EEFA1EFB0E09E
:1017F00010E1888190E09C01257030702115310541
:10180000C1F382FDFBC0242F413108F0212F222398
:1018100071F0CB01322FFC010196E491EC93315031
:10182000D1F7822F815090E00196680F791F421BFB
:1018300058834423F1F62031E1F2E0C0553061F4E1
:101840008EEF8093E800E8EEF0E0808180FFFDCF2E
:1018500060686093E300D2C05930A1F5442391F54C
:1018600060933F011092400110923E018EEF8093F1
:10187000E80041E028E531E0A9EEB0E0CBEED0E0B1
:101880006CEE70E00DEE10E04C93C9010196F90189
:1018900054915883552361F0FC018491FB018083AE
:1018A000F90132962D5F3F4F8491F801808301C08A
:1018B0009C014F5F453041F7EAEEF0E08EE1808316
:1018C00010829CC0583079F4403869F4E8EEF0E0BA
:1018D000808180FFFDCF80913F018093F1008EEFEA
:1018E0008093E8008BC05132B1F4413AA1F4E8EEA4
:1018F000F0E0808180FFFDCFE1E2F1E0CF010796CB
:10190000A1EFB0E021912C93E817F907D9F78EEFFA
:101910008093E80073C05032C9F44132B9F4E8EE64
:10192000F0E0808182FFFDCFE1E2F1E0CF01079698
:10193000A1EFB0E02C912193E817F907D9F7E8EE71
:10194000F0E08BEF80838EEF808358C0523269F4D1
:10195000413259F460934001E8EEF0E0808180FF6D
:10196000FDCF8EEF8093E80049C05523D1F4E8EE17
:10197000F0E0808180FFFDCF423851F4A093E90070
:101980009091EB0081E095FF80E01092E90001C0AA
:1019900080E0E1EFF0E0808310828EEF8093E8003A
:1019A0002DC0513011F0533031F5423021F5611521
:1019B000710509F58A2F8F77982F91509430D8F4BC
:1019C0009EEF9093E8008093E900533021F481E288
:1019D0008093EB0013C099E19093EB0021E030E09D
:1019E000A90102C0440F551F8A95E2F7EAEEF0E024
:1019F0004083108203C081E28093EB00FF91EF915E
:101A0000DF91CF91BF91AF919F918F917F916F9116
:101A10005F914F913F912F911F910F910F900FBEAA
:101A20000F901F9018950F931F93CF93FC01C491B3
:101A3000CC2389F08C010F5F1F4FCA3019F48DE061
:101A40000E9429098C2F0E942909F8010F5F1F4F5E
:101A5000C491CC2391F7CF911F910F9108958A30B3
:101A600010F490E301C097E3890F0E9429090895BB
:101A7000CF93C82F82958F700E942F0D8C2F8F705F
:101A80000E942F0DCF910895CF93C82F892F0E94C8
:101A9000380D8C2F0E94380DCF9108950E94380D7B
:101AA0000895EF92FF920F931F93CF93DF93CDB7DB
:101AB000DEB727970FB6F894DEBF0FBECDBF8E01FD
:101AC0000F5F1F4F27E0F80111922A95E9F7B8013F
:101AD0004AE050E00E94A51078018E01085F1F4F78
:101AE000F70181917F01882311F00E942909E016F6
:101AF000F106B1F727960FB6F894DEBF0FBECDBF43
:101B0000DF91CF911F910F91FF90EF900895EF9289
:101B1000FF920F931F93CF93DF9300D000D00F92CB
:101B2000CDB7DEB78E010F5F1F4F25E0F801119290
:101B30002A95E9F7B8014AE050E00E941F117801A8
:101B40008E010A5F1F4FF70181917F01882311F0F9
:101B50000E942909E016F106B1F70F900F900F903F
:101B60000F900F90DF91CF911F910F91FF90EF9009
:101B70000895EF92FF920F931F93CF93DF93CDB70A
:101B8000DEB72B970FB6F894DEBF0FBECDBF8E0128
:101B90000F5F1F4F2BE0F80111922A95E9F7A8017A
:101BA0002AE030E00E94C61078018E01045F1F4FCA
:101BB000F70181917F01882311F00E942909E01625
:101BC000F106B1F72B960FB6F894DEBF0FBECDBF6E
:101BD000DF91CF911F910F91FF90EF900895EF92B9
:101BE000FF920F931F93CF93DF93CDB7DEB72A9762
:101BF0000FB6F894DEBF0FBECDBF8E010F5F1F4F33
:101C00002AE0F80111922A95E9F7A8012AE030E0CC
:101C10000E94FA1078018E01055F1F4FF701819134
:101C20007F01882311F00E942909E016F106B1F71F
:101C30002A960FB6F894DEBF0FBECDBFDF91CF91CD
:101C40001F910F91FF90EF900895181619063CF41C
:101C500020E030E02F5F3F4F28173907D9F708956C
:101C60000E949B0581E067E148E00E94BD0708955E
:101C70000F931F93CF93DF93CDB7DEB728970FB69F
:101C8000F894DEBF0FBECDBF8E010F5F1F4F28E05F
:101C9000F80111922A95E9F7B8014AE050E00E9454
:101CA000A5108DE1B80148E00E94740888EE93E029
:101CB0000E94250E28960FB6F894DEBF0FBECDBF4A
:101CC000DF91CF911F910F9108950F931F93CF93A1
:101CD000DF93CDB7DEB728970FB6F894DEBF0FBEFF
:101CE000CDBF8E010F5F1F4F28E0F80111922A959A
:101CF000E9F7B8014AE050E00E941F118DE1B801F8
:101D000048E00E94740888EE93E00E94250E289611
:101D10000FB6F894DEBF0FBECDBFDF91CF911F91FC
:101D20000F910895CF93DF93CDB7DEB728970FB605
:101D3000F894DEBF0FBECDBFBE016F5F7F4F98E04E
:101D4000FB0111929A95E9F789838DE148E00E94A1
:101D5000740888EE93E00E94250E28960FB6F8943A
:101D6000DEBF0FBECDBFDF91CF9108955058BB2786
:101D7000AA270ED04DC13ED130F043D120F031F42E
:101D80009F3F11F41EF433C10EF4E095E7FB29C127
:101D9000E92F4FD180F3BA176207730784079507BD
:101DA00018F071F49EF567C10EF4E0950B2EBA2F72
:101DB000A02D0B01B90190010C01CA01A001112451
:101DC000FF27591B99F0593F50F4503E68F11A16FD
:101DD000F040A22F232F342F4427585FF3CF46958E
:101DE00037952795A795F0405395C9F77EF41F16B0
:101DF000BA0B620B730B840BBAF09150A1F0FF0F7A
:101E0000BB1F661F771F881FC2F70EC0BA0F621F65
:101E1000731F841F48F4879577956795B795F79555
:101E20009E3F08F0B3CF9395880F08F09927EE0FE7
:101E30009795879508950CD0EBC0E3D040F0DAD0A9
:101E400030F021F45F3F19F0CCC0511115C1CFC063
:101E5000F0D098F39923C9F35523B1F3951B550B93
:101E6000BB27AA2762177307840738F09F5F5F4F6D
:101E7000220F331F441FAA1FA9F333D00E2E3AF0AE
:101E8000E0E830D091505040E695001CCAF729D0C8
:101E9000FE2F27D0660F771F881FBB1F2617370717
:101EA0004807AB07B0E809F0BB0B802DBF01FF2747
:101EB00093585F4F2AF09E3F510568F092C0DCC0F6
:101EC0005F3FECF3983EDCF3869577956795B79581
:101ED000F7959F5FC9F7880F911D9695879597F99C
:101EE0000895E1E0660F771F881FBB1F6217730715
:101EF0008407BA0720F0621B730B840BBA0BEE1F2A
:101F000088F7E095089504D06894B111B5C008959C
:101F100098D088F09F5790F0B92F9927B751A0F02B
:101F2000D1F0660F771F881F991F1AF0BA95C9F76D
:101F300012C0B13081F09FD0B1E008959CC0672FEE
:101F4000782F8827B85F39F0B93FCCF3869577951D
:101F50006795B395D9F73EF4909580957095619506
:101F60007F4F8F4F9F4F0895E89409C097FB3EF431
:101F700090958095709561957F4F8F4F9F4F9923D6
:101F8000A9F0F92F96E9BB279395F6958795779554
:101F90006795B795F111F8CFFAF4BB0F11F460FF14
:101FA0001BC06F5F7F4F8F4F9F4F16C0882311F06C
:101FB00096E911C0772321F09EE8872F762F05C080
:101FC000662371F096E8862F70E060E02AF09A951B
:101FD000660F771F881FDAF7880F9695879597F910
:101FE000089597F99F6780E870E060E008959FEF9B
:101FF00080EC089500240A941616170618060906A0
:10200000089500240A94121613061406050608956E
:10201000092E0394000C11F4882352F0BB0F40F4F6
:10202000BF2B11F460FF04C06F5F7F4F8F4F9F4F36
:10203000089557FD9058440F551F59F05F3F71F0B8
:102040004795880F97FB991F61F09F3F79F087951F
:102050000895121613061406551FF2CF4695F1DFA8
:1020600008C0161617061806991FF1CF8695710538
:10207000610508940895E894BB2766277727CB016C
:1020800097F908950BD0C4CFB5DF28F0BADF18F068
:10209000952309F0A6CFABCF1124EECFCADFA0F372
:1020A000959FD1F3950F50E0551F629FF001729FED
:1020B000BB27F00DB11D639FAA27F00DB11DAA1F0C
:1020C000649F6627B00DA11D661F829F2227B00D59
:1020D000A11D621F739FB00DA11D621F839FA00DE4
:1020E000611D221F749F3327A00D611D231F849F34
:1020F000600D211D822F762F6A2F11249F5750408B
:102100008AF0E1F088234AF0EE0FFF1FBB1F661F25
:10211000771F881F91505040A9F79E3F510570F0DE
:1021200060CFAACF5F3FECF3983EDCF386957795BE
:102130006795B795F795E7959F5FC1F7FE2B880FD9
:10214000911D9695879597F90895FB019F01E89455
:102150004230C4F04532B4F44A3029F497FB1EF4FF
:10216000909581959F4F642F77270E944511805D40
:102170008A330CF0895D8193CB010097A1F716F4A7
:102180005DE251931082C9010C943511FA01CF938D
:10219000FF93EF93223044F1253234F5C22FE894B7
:1021A000CA3049F497FB3EF49095809570956195FF
:1021B0007F4F8F4F9F4F2C2F332744275527FF9357
:1021C000EF930E945911EF91FF91605D6A330CF01B
:1021D000695D6193B901CA016050704080409040D0
:1021E00051F716F4CDE2C19310828F919F91CF9158
:1021F0000C943511FA01CF93FF93EF932230CCF07A
:102200002532BCF4C22F2C2F332744275527FF93A8
:10221000EF930E945911EF91FF91605D6A330CF0CA
:10222000695D6193B901CA0160507040804090407F
:1022300051F710828F919F91CF910C943511FB0132
:102240009F01423074F0453264F4642F77270E9476
:102250004511805D8A330CF0895D8193CB01009735
:10226000A1F71082C9010C943511DC01FC01672F24
:1022700071917723E1F7329704C07C916D9370835D
:102280006291AE17BF07C8F30895AA1BBB1B51E1AB
:1022900007C0AA1FBB1FA617B70710F0A61BB70BD6
:1022A000881F991F5A95A9F780959095BC01CD017B
:1022B0000895A1E21A2EAA1BBB1BFD010DC0AA1F87
:1022C000BB1FEE1FFF1FA217B307E407F50720F09F
:1022D000A21BB30BE40BF50B661F771F881F991F1A
:1022E0001A9469F760957095809590959B01AC0163
:0A22F000BD01CF010895F894FFCF5F
:1022FA00010000803F000000000000000000008094
:10230A003F0AD7A33B0000A0400AD7233CCDCC4CC0
:08231A003D00E1000000000895
:00000001FF
